:020000040000FA
:020000001228C4
:080008000C1C09000C10220879
:100010008F0023088E00A00B0900860A1430A00070
:10002000A10009008316031306309F0003308500EA
:1000300086018312031303308500860183120313A4
:10004000C0308B0083120313831603130C14831622
:100050000313831203130C1083120313831203136D
:100060001130900083120313831203139E30A200F9
:100070008F005830A3008E00A0011430A100A00012
:1000800083120313051855288518612842280F305C
:10009000A1008430A3006D30A20008000630A1004A
:1000A0002C30A300CF30A2000800A10A2308C43CD2
:1000B000A3002208093CA2000F302102031D4228A0
:1000C0004720A1032308C43EA3002208093EA20042
:0C00D00005302102031D42284E206D283F
:02400E00313F40
:00000001FF
